{
  "contractName": "StudentIdentity",
  "abi": [
    {
      "inputs": [
        {
          "internalType": "string",
          "name": "_name",
          "type": "string"
        },
        {
          "internalType": "string",
          "name": "_clgname",
          "type": "string"
        },
        {
          "internalType": "uint256",
          "name": "_passingyear",
          "type": "uint256"
        },
        {
          "internalType": "string",
          "name": "_email",
          "type": "string"
        }
      ],
      "name": "registerStudent",
      "outputs": [],
      "stateMutability": "nonpayable",
      "type": "function"
    },
    {
      "inputs": [],
      "name": "Entry",
      "outputs": [],
      "stateMutability": "nonpayable",
      "type": "function"
    },
    {
      "inputs": [],
      "name": "getEntryTime",
      "outputs": [
        {
          "internalType": "uint256",
          "name": "",
          "type": "uint256"
        }
      ],
      "stateMutability": "view",
      "type": "function"
    },
    {
      "inputs": [],
      "name": "getExitTime",
      "outputs": [
        {
          "internalType": "uint256",
          "name": "",
          "type": "uint256"
        }
      ],
      "stateMutability": "view",
      "type": "function"
    },
    {
      "inputs": [],
      "name": "Exit",
      "outputs": [],
      "stateMutability": "nonpayable",
      "type": "function"
    }
  ],
  "bytecode": "0x60806040526000805534801561001457600080fd5b50610a5e806100246000396000f3fe608060405234801561001057600080fd5b50600436106100575760003560e01c806321e26cee1461005c5780633811efec1461007a57806341a55178146100845780638c33d8ee146100a0578063cff410b4146100be575b600080fd5b6100646100c8565b60405161007191906107a6565b60405180910390f35b610082610112565b005b61009e60048036038101906100999190610666565b6101f1565b005b6100a86103cc565b6040516100b591906107a6565b60405180910390f35b6100c6610416565b005b6000600360003373ffffffffffffffffffffffffffffffffffffffff1673ffffffffffffffffffffffffffffffffffffffff16815260200190815260200160002060070154905090565b60011515600360003373ffffffffffffffffffffffffffffffffffffffff1673ffffffffffffffffffffffffffffffffffffffff16815260200190815260200160002060050160009054906101000a900460ff161515146101a8576040517f08c379a000000000000000000000000000000000000000000000000000000000815260040161019f90610766565b60405180910390fd5b42600360003373ffffffffffffffffffffffffffffffffffffffff1673ffffffffffffffffffffffffffffffffffffffff16815260200190815260200160002060060181905550565b60001515600360003373ffffffffffffffffffffffffffffffffffffffff1673ffffffffffffffffffffffffffffffffffffffff16815260200190815260200160002060050160009054906101000a900460ff16151514610287576040517f08c379a000000000000000000000000000000000000000000000000000000000815260040161027e90610786565b60405180910390fd5b600080815480929190610299906108d8565b919050555060006040518061010001604052806000548152602001868152602001858152602001848152602001838152602001600115158152602001600081526020016000815250905080600360003373ffffffffffffffffffffffffffffffffffffffff1673ffffffffffffffffffffffffffffffffffffffff168152602001908152602001600020600082015181600001556020820151816001019080519060200190610349929190610546565b506040820151816002019080519060200190610366929190610546565b5060608201518160030155608082015181600401908051906020019061038d929190610546565b5060a08201518160050160006101000a81548160ff02191690831515021790555060c0820151816006015560e082015181600701559050505050505050565b6000600360003373ffffffffffffffffffffffffffffffffffffffff1673ffffffffffffffffffffffffffffffffffffffff16815260200190815260200160002060060154905090565b60011515600360003373ffffffffffffffffffffffffffffffffffffffff1673ffffffffffffffffffffffffffffffffffffffff16815260200190815260200160002060050160009054906101000a900460ff161515146104ac576040517f08c379a00000000000000000000000000000000000000000000000000000000081526004016104a390610766565b60405180910390fd5b633b9aca00600360003373ffffffffffffffffffffffffffffffffffffffff1673ffffffffffffffffffffffffffffffffffffffff168152602001908152602001600020600601546104fe9190610828565b600360003373ffffffffffffffffffffffffffffffffffffffff1673ffffffffffffffffffffffffffffffffffffffff16815260200190815260200160002060070181905550565b82805461055290610875565b90600052602060002090601f01602090048101928261057457600085556105bb565b82601f1061058d57805160ff19168380011785556105bb565b828001600101855582156105bb579182015b828111156105ba57825182559160200191906001019061059f565b5b5090506105c891906105cc565b5090565b5b808211156105e55760008160009055506001016105cd565b5090565b60006105fc6105f7846107e6565b6107c1565b90508281526020810184848401111561061457600080fd5b61061f848285610866565b509392505050565b600082601f83011261063857600080fd5b81356106488482602086016105e9565b91505092915050565b60008135905061066081610a11565b92915050565b6000806000806080858703121561067c57600080fd5b600085013567ffffffffffffffff81111561069657600080fd5b6106a287828801610627565b945050602085013567ffffffffffffffff8111156106bf57600080fd5b6106cb87828801610627565b93505060406106dc87828801610651565b925050606085013567ffffffffffffffff8111156106f957600080fd5b61070587828801610627565b91505092959194509250565b600061071e601683610817565b9150610729826109bf565b602082019050919050565b6000610741601a83610817565b915061074c826109e8565b602082019050919050565b6107608161085c565b82525050565b6000602082019050818103600083015261077f81610711565b9050919050565b6000602082019050818103600083015261079f81610734565b9050919050565b60006020820190506107bb6000830184610757565b92915050565b60006107cb6107dc565b90506107d782826108a7565b919050565b6000604051905090565b600067ffffffffffffffff8211156108015761080061097f565b5b61080a826109ae565b9050602081019050919050565b600082825260208201905092915050565b60006108338261085c565b915061083e8361085c565b92508282101561085157610850610921565b5b828203905092915050565b6000819050919050565b82818337600083830152505050565b6000600282049050600182168061088d57607f821691505b602082108114156108a1576108a0610950565b5b50919050565b6108b0826109ae565b810181811067ffffffffffffffff821117156108cf576108ce61097f565b5b80604052505050565b60006108e38261085c565b91507fffffffffffffffffffffffffffffffffffffffffffffffffffffffffffffffff82141561091657610915610921565b5b600182019050919050565b7f4e487b7100000000000000000000000000000000000000000000000000000000600052601160045260246000fd5b7f4e487b7100000000000000000000000000000000000000000000000000000000600052602260045260246000fd5b7f4e487b7100000000000000000000000000000000000000000000000000000000600052604160045260246000fd5b6000601f19601f8301169050919050565b7f596f7520617265206e6f74207265676973746572656400000000000000000000600082015250565b7f596f752061726520616c72656164792072656769737465726564000000000000600082015250565b610a1a8161085c565b8114610a2557600080fd5b5056fea2646970667358221220d0b761b34741684f24cf6ea4b0878e78a928ed7e65dd833f9a9a52d50b3f3eca64736f6c63430008030033",
  "immutableReferences": {},
  "source": "pragma solidity ^0.8.0;\r\n\r\ncontract StudentIdentity{\r\n    uint counter=0;\r\n    uint entry;\r\n    uint exit;\r\n    struct Student{\r\n        uint id;\r\n        string name;\r\n        string clgname;\r\n        uint passingyear;\r\n        string email;\r\n        bool isRegistered;\r\n        uint entrytime;\r\n                uint exittime;\r\n\r\n         \r\n    }\r\n    mapping (address=> Student) students;\r\n    function registerStudent(string memory _name,string memory _clgname,uint _passingyear,string memory _email )public \r\n    {\r\n        require(students[msg.sender].isRegistered==false,\"You are already registered\");\r\n        counter++;\r\n        Student memory student1 = Student(counter,_name,_clgname,_passingyear,_email,true,0,0);\r\n        students[msg.sender]=student1;\r\n        \r\n        \r\n    }\r\n    function Entry()public{\r\n        require(students[msg.sender].isRegistered==true,\"You are not registered\");\r\n        \r\n        students[msg.sender].entrytime=block.timestamp;\r\n        \r\n    }\r\n    function getEntryTime()public view returns(uint256){\r\n        return students[msg.sender].entrytime;\r\n        \r\n    }\r\n    function getExitTime()public view returns(uint256){\r\n\r\n        return students[msg.sender].exittime;\r\n    }\r\n    function Exit()public {\r\n        require(students[msg.sender].isRegistered==true,\"You are not registered\");\r\n        \r\n         students[msg.sender].exittime=students[msg.sender].entrytime-1000000000;\r\n        \r\n    }\r\n}",
  "sourcePath": "D:/FullProject/contracts/StudentIdentity.sol",
  "compiler": {
    "name": "solc",
    "version": "0.8.3+commit.8d00100c.Emscripten.clang"
  },
  "schemaVersion": "3.3.4",
  "updatedAt": "2021-04-10T07:50:27.946Z",
  "devdoc": {
    "kind": "dev",
    "methods": {},
    "version": 1
  },
  "userdoc": {
    "kind": "user",
    "methods": {},
    "version": 1
  }
}